:020000040000FA
:040000008A110D282C
:10000800FE00030E83120313A0000A08A1008A1140
:1000180046288A110F288A1191208A11A800A70161
:1000280083018A1117288A116D208A118A11882064
:100038008A1183160313880183120313081083128D
:100048000313280888002808A40007300310A40C0C
:10005800FF3E031D2A282808A50025072404A80018
:10006800033083120313A6008A30A5005530A4007C
:10007800A40B3C28A50B3C28A60B3C2800002328F1
:100088008A110D28831603130C1F4B284C2865284A
:10009800831203130C1F5128522865281E08A70035
:1000A80005302702031859285A285C2808146328A1
:1000B8000B302702031C61286228632808100C13E0
:1000C8001F15831221088A00200E8300FE0E7E0E63
:1000D80009000130831203139F001F083F3940387D
:1000E8009F000E30831603139F00831203131F14FF
:1000F800033083120313A3009730A200A20B8228B7
:10010800A30B8228000008008B170B178312031318
:0C0118000C13831603130C1708000134AD
:02400E00F93F78
:00000001FF
